:020000040000FA
:040000004AEF00F0D3
:020008001000E6
:080018001000838083828384C1
:1000200083868388838A1200838083868388838A79
:10003000838C12008380838283848386838A838C6B
:1000400012008380838483868388838A838C120052
:10005000838083848386838A838C12008380838257
:10006000838483868388838A838C838C1200836A4B
:100070001200910E016EC80E006E0000000000001C
:100080000000000000000000002EF7D7012EF3D77B
:1000900000001200956A37EC00F039EC00F00DEC2E
:1000A00000F039EC00F037EC00F039EC00F014EC23
:1000B00000F039EC00F037EC00F039EC00F01AEC0D
:1000C00000F039EC00F037EC00F039EC00F021ECF6
:1000D00000F039EC00F037EC00F039EC00F028ECDF
:1000E00000F039EC00F037EC00F039EC00F028ECCF
:1000F00000F039EC00F037EC00F039EC00F02EECB9
:1001000000F039EC00F037EC00F039EC00F0C2D729
:00000001FF
